{
  "address": "0x5BD8669A700565a5237671ee33A5Cc4cDaBF01bF",
  "abi": [
    {
      "inputs": [],
      "stateMutability": "nonpayable",
      "type": "constructor"
    },
    {
      "inputs": [
        {
          "components": [
            {
              "internalType": "uint256[2]",
              "name": "_pA",
              "type": "uint256[2]"
            },
            {
              "internalType": "uint256[2][2]",
              "name": "_pB",
              "type": "uint256[2][2]"
            },
            {
              "internalType": "uint256[2]",
              "name": "_pC",
              "type": "uint256[2]"
            },
            {
              "internalType": "uint256[38]",
              "name": "_pubSignals",
              "type": "uint256[38]"
            }
          ],
          "internalType": "struct CommunityPortal.ProofArgs",
          "name": "proof",
          "type": "tuple"
        },
        {
          "internalType": "address",
          "name": "account",
          "type": "address"
        }
      ],
      "name": "addCommunityCollaborator",
      "outputs": [],
      "stateMutability": "nonpayable",
      "type": "function"
    },
    {
      "inputs": [],
      "name": "communityPortal",
      "outputs": [
        {
          "internalType": "contract FileversePortal",
          "name": "",
          "type": "address"
        }
      ],
      "stateMutability": "view",
      "type": "function"
    },
    {
      "inputs": [
        {
          "internalType": "uint256[38]",
          "name": "_pubSignals",
          "type": "uint256[38]"
        }
      ],
      "name": "getSignerFromPublicSignals",
      "outputs": [
        {
          "internalType": "uint256[2]",
          "name": "",
          "type": "uint256[2]"
        }
      ],
      "stateMutability": "pure",
      "type": "function"
    },
    {
      "inputs": [
        {
          "internalType": "uint256[38]",
          "name": "_pubSignals",
          "type": "uint256[38]"
        }
      ],
      "name": "getValidEventIdFromPublicSignals",
      "outputs": [
        {
          "internalType": "uint256[]",
          "name": "",
          "type": "uint256[]"
        }
      ],
      "stateMutability": "view",
      "type": "function"
    },
    {
      "inputs": [
        {
          "internalType": "uint256[38]",
          "name": "_pubSignals",
          "type": "uint256[38]"
        }
      ],
      "name": "getWaterMarkFromPublicSignals",
      "outputs": [
        {
          "internalType": "uint256",
          "name": "",
          "type": "uint256"
        }
      ],
      "stateMutability": "pure",
      "type": "function"
    },
    {
      "inputs": [
        {
          "internalType": "address",
          "name": "account",
          "type": "address"
        }
      ],
      "name": "isCollaborator",
      "outputs": [
        {
          "internalType": "bool",
          "name": "",
          "type": "bool"
        }
      ],
      "stateMutability": "view",
      "type": "function"
    },
    {
      "inputs": [],
      "name": "name",
      "outputs": [
        {
          "internalType": "string",
          "name": "",
          "type": "string"
        }
      ],
      "stateMutability": "view",
      "type": "function"
    },
    {
      "inputs": [],
      "name": "owner",
      "outputs": [
        {
          "internalType": "address",
          "name": "",
          "type": "address"
        }
      ],
      "stateMutability": "view",
      "type": "function"
    },
    {
      "inputs": [],
      "name": "trustedForwarder",
      "outputs": [
        {
          "internalType": "address",
          "name": "",
          "type": "address"
        }
      ],
      "stateMutability": "view",
      "type": "function"
    },
    {
      "inputs": [
        {
          "internalType": "uint256[2]",
          "name": "_pA",
          "type": "uint256[2]"
        },
        {
          "internalType": "uint256[2][2]",
          "name": "_pB",
          "type": "uint256[2][2]"
        },
        {
          "internalType": "uint256[2]",
          "name": "_pC",
          "type": "uint256[2]"
        },
        {
          "internalType": "uint256[38]",
          "name": "_pubSignals",
          "type": "uint256[38]"
        }
      ],
      "name": "verifyProof",
      "outputs": [
        {
          "internalType": "bool",
          "name": "",
          "type": "bool"
        }
      ],
      "stateMutability": "view",
      "type": "function"
    }
  ],
  "transactionHash": "0xa931d5fc4e9f86f923476adac8586cf8ba7bcad486f8d662ff41be0c72317cfc",
  "args": [],
  "numDeployments": 2,
  "solcInputHash": "ce7fcb6729d46b82affa5b16d910ec52",
  "bytecode": "0x600180546001600160a01b0319167331470b3126dd7cee5ee7591c2cb5142a68f5712017815560c06040526f53edb3e7673341e0a9be488877c5c57260a09081526200004f9160029190620001a6565b50604080518082019091527f1ebfb986fbac5113f8e2c72286fe9362f8e7d211dbc68227a468d7b919e7500381527f10ec38f11baacad5535525bbe8e343074a483c051aa1616266f3b1df3fb7d2046020820152620000b3906003906002620001f4565b50348015620000c157600080fd5b50600080546001600160a01b0319163017815560408051608081018252828152602080820184905281830184905260608083018590528351908101909352602e808452919392919062004e6490830139604080518082018252600a81526964756d6d7976616c756560b01b6020820152600054600154925193945090928492849283926001600160a01b0391821692909116908890620001619062000225565b620001729695949392919062000292565b604051809103906000f0801580156200018f573d6000803e3d6000fd5b506001600160a01b0316608052506200031f915050565b8260018101928215620001e2579160200282015b82811115620001e257825182906001600160801b0316905591602001919060010190620001ba565b50620001f092915062000233565b5090565b8260028101928215620001e2579160200282015b82811115620001e257825182559160200191906001019062000208565b612f6e8062001ef683390190565b5b80821115620001f0576000815560010162000234565b6000815180845260005b81811015620002725760208185018101518683018201520162000254565b506000602082860101526020601f19601f83011685010191505092915050565b6000610120808352620002a88184018a6200024a565b90508281036020840152620002be81896200024a565b90508281036040840152620002d481886200024a565b6001600160a01b039687166060858101919091529590961660808401525050815160a0820152602082015160c0820152604082015160e0820152910151610100909101529392505050565b608051611bad62000349600039600081816101cb015281816102ad015261177a0152611bad6000f3fe608060405234801561001057600080fd5b506004361061009e5760003560e01c8063831e4ae011610066578063831e4ae0146101805780638da5cb5b14610193578063a9ec656a146101a6578063b72d092a146101c6578063db974b12146101ed57600080fd5b806306fdde03146100a3578063183aaa39146100ee578063216731511461010e5780636af8c4e7146101325780637da0a87714610155575b600080fd5b6100d86040518060400160405280601681526020017510dbdb5b5d5b9a5d1e4813dddb995908141bdc9d185b60521b81525081565b6040516100e591906117fd565b60405180910390f35b6101016100fc36600461184b565b610202565b6040516100e591906118d8565b61012461011c36600461184b565b6104a0015190565b6040519081526020016100e5565b610145610140366004611938565b61028b565b60405190151581526020016100e5565b600154610168906001600160a01b031681565b6040516001600160a01b0390911681526020016100e5565b61014561018e36600461196b565b610320565b600054610168906001600160a01b031681565b6101b96101b436600461184b565b61152c565b6040516100e591906119d1565b6101687f000000000000000000000000000000000000000000000000000000000000000081565b6102006101fb366004611a02565b611554565b005b604080516001808252818301909252606091600091906020808301908036833701905050905060005b6001811015610284578361024082600f611a56565b6026811061025057610250611a69565b602002015182828151811061026757610267611a69565b60209081029190910101528061027c81611a7f565b91505061022b565b5092915050565b604051636af8c4e760e01b81526001600160a01b0382811660048301526000917f000000000000000000000000000000000000000000000000000000000000000090911690636af8c4e790602401602060405180830381865afa1580156102f6573d6000803e3d6000fd5b505050506040513d601f19601f8201168201806040525081019061031a9190611a98565b92915050565b60006112ee565b7f30644e72e131a029b85045b68181585d97816a916871ca8d3c208c16d87cfd478110610358576000805260206000f35b50565b600060405183815284602082015285604082015260408160608360076107d05a03fa91508161038e576000805260206000f35b825160408201526020830151606082015260408360808360066107d05a03fa915050806103bf576000805260206000f35b5050505050565b7f0f9006886f6f20ff507615a18b97e3c01a4014043c38b27cde5a7cdf7dab0d7f85527f1e92b1b255ac9824dd1ee75e42c910e057e6dd572de9aad0494189943d373eb160208601526000608086018661046387357f2cb53751205cf78a9cf5e100f215c610367178554c581286e82ce6894d769ee17f08c033375f7b9b4d4d21ab61cf95398b85ceab592496fac5e0278c847e6742768461035b565b6104b360208801357f052490713e636a97e1fb031b2d3384c4ab2d6f6ed3ac9f459fac2d2ba4a1b2e07f01fd7cd23534b84d17783c31e441aa2eb95a050b9127e37a9f5587a1751f71eb8461035b565b61050360408801357f256616621649a845cb66babd1f676ba44d689e683eb7eb53374e48b8e4c409b17f0b228257ad0859000e38bdf38ff787e6b829b3cd0040ab92164d6171f3b085ea8461035b565b61055360608801357f186e961f4c05f1671f7994e4500382eefc07ea1ddc6a5a1a60f6ee347c7be0577f2979d724649fc184f1091abdedb64ea58401b0c0e54e9480a1c2ef5601c087e08461035b565b6105a360808801357f27081b7a953c3790bf751674a50a23821e7f3841d7b0418e61b5277d6aaa7ccc7f1fd8ffd81e555806ffdc9e0f034c1373ae012499e7e67d5edc01582790d409938461035b565b6105f360a08801357f0e82363237a4dc55526e001eb1d695c3e9039986e9a2373455ba4b570acc72647f13498910321d23ea90b409e45e90c40e837c70eeffd5ca85a02eccbceade6b538461035b565b61064360c08801357f2e2315c45313e02591ba43319399b74bedd9ced2793f602f6b22eafe003f8b4a7f203a8f7d111ad941e485f2692c256680b752edc3cd8ccd92e620cf17ff3534d28461035b565b61069360e08801357f1e86fb929660fdaa69f10be5714651ed0de3dfd49f06238334f937d9d3e2733f7f21564b1e9db2b247e0921254e9f0f75e3fcbe2d1d30a202b2be65e4b18a152e08461035b565b6106e46101008801357f016ec5dcb66e609a8d89e711444d32e586f662354e41084e2888ebb97f5b67227f1a71bfa4c37985b56863021a5c26e1a561cdd4cfa2f1aa9327f632b4670f52428461035b565b6107356101208801357f1831182339eb45624402af0e2887a9a93b33abc52c8d50096aca373449396cd67f15e1f2d6b38cae9960aceae8d832067aac43565737b79c4875b6dd7a67d4bfc98461035b565b6107866101408801357f05dd559259952daad5ad52f86970c2fa050974d317cc2ad04dd58f59ecbc7e787f3020cdde5eb7df9c7afd526edb333a11dcdb1f271e3e7d31dac1ad0ddc7b75538461035b565b6107d76101608801357f1f63433f4731866908a7fdd84e9a6a9cc5584c8e9a6c9541183c17e018660f017f176401669c60e015427c97b4f4e756e9b12a249fbc767240a1b95b6e90339af88461035b565b6108286101808801357f1becf90ef08f14887607386cf5c4ae46eac76cc93f9b28e3dc6720f2a8636f727f266d92bb0c7cf54c13320ec43b304aae7c1e68ab8c633f6bc079beca7b83b8a88461035b565b6108796101a08801357f0f16bca08d7672c2c6a70b097f780d92cb6abe71231530ab38be47ec4bb9f0657f1ecef5129f49f6c4f70856db2437c3342d840ef55e7f674431b39235bb32a2e58461035b565b6108ca6101c08801357f0e57ec4267b4df8c79888d886080dddd7330233a9ea5489dbe03a388741adc657f0f8bf7735da92118f10b840163fc142a2f8c35c5daf732d0375f30ec021c38228461035b565b61091a6101e08801357f25d3c509d8f46e27ef324e20dad1befe8f5ef4c5698065d8b2ec025b80a4bdb97e128ae85c76fbc1214b05cc94acb1a72e3f1fc009250a9a7c3eb907e1aaab4a8461035b565b61096b6102008801357f27529cf8c93cd529763ffa29d7b1b0bb845b2e4ee836bfa6fdc2a3f295a2a2a47f0b61bd21284bfb3849df98447bba37fd83979043923df5a5a1e2313f6c934fe78461035b565b6109bc6102208801357f1d0690e56fd4ebdbeddc2c36d146a581f1bada3459fc0d22e6cf3a879d8e0bb27f2a4c8d4ce173db6c3151ff95771e5bc600454ba8d8e77d73d691d3b788f1547c8461035b565b610a0d6102408801357f2197d9057bcd8512d8bd10d708f9b9b983e30aa4206d0d298b1bfdb22c03af0d7f1f91c262234db447c7a42e2ac865dfc25173698c81f7150c1fc6e3f5215251748461035b565b610a5e6102608801357f0ccf58b5f8b38c4fb71107eb3141fd4cd8835c1ac98ce069d17f483fda4902137f160261b562bb1c2e1adfbe16213ab10f1d65a9af797ff9fdf33cbaffdd8ff14a8461035b565b610aaf6102808801357f06070cd76564f60c5cd3189dfd49e1aed642613d7d2361e1a8e522fa39e2139b7f06d6cb60a85a184ed8560777b4d6ea19d81cb7a5c1f2dc6a485edc4ceb40a2608461035b565b610b006102a08801357f2fc55313fc9e16e0dda7103536e846ee999347ed86ad019229f031a19ed4634c7f0baae891783d92c0d64d955d136cbcebb2e38ae09dbfde150feee3c0b882a8658461035b565b610b516102c08801357f1d7c06c0d99ac359b5ef4753b1bf87d1a8fcffe2ce8cc05e92f39f1d027f43a47f065f3215077f26963b7171c9ff320db50fde64fb3dd2992595c11981b0bda98b8461035b565b610ba26102e08801357f06fead1c35303d414ab4af9fda1e1fd929ef117d2cb5da0efc04f42bc9c6f0bb7f2484e7bd73447c5f7ce18f9df35f68977544ba54ba13a30555bbc0c11a8a427a8461035b565b610bf36103008801357f1a2f48b9b4d7d54e7533ecce0c24385e6a2a65a9f073da49b169aa83444a2c787f2f68633a8f3f177d4be86b9e27b768b50cce1a9e304d44055081d1cf878c922d8461035b565b610c446103208801357f2a74eb84308bc8b3e745cb7869a3301e4f7c6376639d186606ff9a27bad8cbd07f13ec3d5bd56285ef6ad6950716731c0347193d8cadd2b24f33b0bc49ea8b00278461035b565b610c956103408801357f04a3a7a4b18f2e65b78613d067c00fc8e083e60aa927d230047343e15570c1647f1b27af4b6e4052e4c2820aa710903fc054cc14f34e5515d98f9db79108e7197e8461035b565b610ce66103608801357f0a6a46ce4ff2fd7ec6b6bff4233f44cac59f12e27b2964aa4804a67b9cc179347f0466b278eb0e5e3a1117c981ee45eaa3fc9b99a65422bafc1ab3b2d35b25cb178461035b565b610d376103808801357f2a0a97c04405a1f7fef7a27e4055bffc61bfa9213790043f44a58c97808466cd7f2d02b829f9fcf0d926ff84f19acd70edd1e3cebcb3d8992d08bb9abf65cc0b5a8461035b565b610d886103a08801357f199dc24b47a01774b2ca14c6ebb1d6dbefd68f2910cea07a6f52a39a51e821b37f2e2acca1c520dbc0c6669c66d83c51d43ff7623e6e47e8b682b4b53c27fbee548461035b565b610dd96103c08801357f10d9be99903ae31c2e662af507aeac7734dea024cdfca7d206aa20a47b893e707f15d021f30dff2805c0c2699359e2c1e1fd31ccaf156d2d38bbc1e1e2b42d91f18461035b565b610e2a6103e08801357f182f3ab3a4ff98f3885bd016f76eeec476ba1b76c323b1653ef6b80768a5a16b7f1f03120f3f56b9035896158416bc21b1b55938ca68811e0713ab85d2feee2b3e8461035b565b610e7b6104008801357f0f86d0b5c22dce1b3919696027d8a6e866726b44893e19cf1384544d66758f6b7f1218fcad9b211671bc8484d52d665df07d2a87fdce5e2df8c05c643a627a53218461035b565b610ecc6104208801357f29feae1b5b40d3a967d3696b9503cececda9980a7a0b51e3386778862673abd67f19abd3b165a28e010c686149f039ea919508d9373aca3096fe6fee3e63717a6e8461035b565b610f1c6104408801357f2c3c0a78a37f4cd21f164ffd0133f5d4cb2c0ad3ca4ce260a04930dac48cc5207e7169c644575f01b354a6f7633c7be48066117f6add439b6f745525017ac9c58461035b565b610f6c6104608801357f0b793cba68e2710afcdb131342860cea217a60ab74f3f49bcf10bbf9ad78533b7eb9e02b1890acc5f73ac202170eeb3d99ab5d849179db2a443e20d5d71cfeb08461035b565b610fbd6104808801357f06f371ff234dbbe385a7b198ec02fe2c3114696d09a9baacb27c91f2bedd20ae7f0d4adb8a04cae83cb1cd6867a50b8bb4e6f506b4f76de88d66188a2caeee25fb8461035b565b61100e6104a08801357f2274d3006c7891d6ffa5005462d890c9a3f06c2740684f17d98f4fc749dc04de7f0e38eb2cc3fd05d81d7991331e43a9cb3a39825b841d3abe9fbba1d5026944548461035b565b50823581527f30644e72e131a029b85045b68181585d97816a916871ca8d3c208c16d87cfd4760208401357f30644e72e131a029b85045b68181585d97816a916871ca8d3c208c16d87cfd4703066020820152833560408201526020840135606082015260408401356080820152606084013560a08201527f2d4d9aa7e302d9df41749d5507949d05dbea33fbb16c643b22f599a2be6df2e260c08201527f14bedd503c37ceb061d8ec60209fe345ce89830a19230301f076caff004d192660e08201527f0967032fcbf776d1afc985f88877f182d38480a653f2decaa9794cbc3bf3060c6101008201527f0e187847ad4c798374d0d6732bf501847dd68bc0e071241e0213bc7fc13db7ab6101208201527f304cfbd1e08a704a99f5e847d93f8c3caafddec46b7a0d379da69a4d112346a76101408201527f1739c1b1a457a8c7313123d24d2f9192f896b7c63eea05a9d57f06547ad0cec8610160820152600087015161018082015260206000018701516101a08201527f198e9393920d483a7260bfb731fb5d25f1aa493335a9e71297e485b7aef312c26101c08201527f1800deef121f1e76426a00665e5c4479674322d4f75edadd46debd5cd992f6ed6101e08201527f090689d0585ff075ec9e99ad690c3395bc4b313370b38ef355acdadcd122975b6102008201527f12c85ea5db8c6deb4aab71808dcb408fe3d1e7690c43d37b4ce6cc0166fa7daa610220820152843561024082015260208501356102608201527f0a99859aa8393a5eca66946b5015eaa847991f8bc375aa6cf49fa75656c614a66102808201527f040455d90d2400b3bccf9ce7dcf376258d8a89bfef69a359795ee559e971cb436102a08201527f0aa97e6e93aadcbb21d5b5e193976fc8edea5b4e5400d438ee722ce8b12416bf6102c08201527f1df147cf091a2b6e12bec09ea95cf9d90d8684d8c987b3041b6c08724a262ad26102e08201526020816103008360086107d05a03fa9051169695505050505050565b60405161038081016040526113066000840135610327565b6113136020840135610327565b6113206040840135610327565b61132d6060840135610327565b61133a6080840135610327565b61134760a0840135610327565b61135460c0840135610327565b61136160e0840135610327565b61136f610100840135610327565b61137d610120840135610327565b61138b610140840135610327565b611399610160840135610327565b6113a7610180840135610327565b6113b56101a0840135610327565b6113c36101c0840135610327565b6113d16101e0840135610327565b6113df610200840135610327565b6113ed610220840135610327565b6113fb610240840135610327565b611409610260840135610327565b611417610280840135610327565b6114256102a0840135610327565b6114336102c0840135610327565b6114416102e0840135610327565b61144f610300840135610327565b61145d610320840135610327565b61146b610340840135610327565b611479610360840135610327565b611487610380840135610327565b6114956103a0840135610327565b6114a36103c0840135610327565b6114b16103e0840135610327565b6114bf610400840135610327565b6114cd610420840135610327565b6114db610440840135610327565b6114e9610460840135610327565b6114f7610480840135610327565b6115056104a0840135610327565b6115136104c0840135610327565b611520818486888a6103c6565b90508060005260206000f35b6115346117df565b61153c6117df565b6101a083015181526101c09092015160208301525090565b60408051630418f25760e51b81528391309163831e4ae09161158891859182019060c0830190610100840190600401611aba565b602060405180830381865afa1580156115a5573d6000803e3d6000fd5b505050506040513d601f19601f820116820180604052508101906115c99190611a98565b61160a5760405162461bcd60e51b815260206004820152600d60248201526c24b73b30b634b210383937b7b360991b60448201526064015b60405180910390fd5b604080516104c08181019092529061010085019060269083908390808284376000920182905250915061163e905082610202565b905060026040516020016116529190611b07565b60405160208183030381529060405280519060200120816040516020016116799190611b41565b60405160208183030381529060405280519060200120146116d05760405162461bcd60e51b8152602060048201526011602482015270496e76616c6964206576656e742069647360781b6044820152606401611601565b604080516104c08181019092529061010087019060269083908390808284376000920182905250915061170490508261152c565b600354815191925014801561171e57506004546020820151145b61175b5760405162461bcd60e51b815260206004820152600e60248201526d24b73b30b634b21039b4b3b732b960911b6044820152606401611601565b60405163666df35360e11b81526001600160a01b0387811660048301527f0000000000000000000000000000000000000000000000000000000000000000169063ccdbe6a690602401600060405180830381600087803b1580156117be57600080fd5b505af11580156117d2573d6000803e3d6000fd5b5050505050505050505050565b60405180604001604052806002906020820280368337509192915050565b600060208083528351808285015260005b8181101561182a5785810183015185820160400152820161180e565b506000604082860101526040601f19601f8301168501019250505092915050565b60006104c080838503121561185f57600080fd5b83601f84011261186e57600080fd5b60405181810181811067ffffffffffffffff8211171561189e57634e487b7160e01b600052604160045260246000fd5b6040529083019080858311156118b357600080fd5b845b838110156118cd5780358252602091820191016118b5565b509095945050505050565b6020808252825182820181905260009190848201906040850190845b81811015611910578351835292840192918401916001016118f4565b50909695505050505050565b80356001600160a01b038116811461193357600080fd5b919050565b60006020828403121561194a57600080fd5b6119538261191c565b9392505050565b806040810183101561031a57600080fd5b6000806000806105c080868803121561198357600080fd5b61198d878761195a565b945060c08601878111156119a057600080fd5b6040870194506119b0888261195a565b9350508681870111156119c257600080fd5b50929591945092610100019150565b60408101818360005b60028110156119f95781518352602092830192909101906001016119da565b50505092915050565b6000808284036105e0811215611a1757600080fd5b6105c080821215611a2757600080fd5b849350611a3581860161191c565b925050509250929050565b634e487b7160e01b600052601160045260246000fd5b8082018082111561031a5761031a611a40565b634e487b7160e01b600052603260045260246000fd5b600060018201611a9157611a91611a40565b5060010190565b600060208284031215611aaa57600080fd5b8151801515811461195357600080fd5b6105c081016040808784378083018660005b6002811015611ae957838284379183019190830190600101611acc565b505050808560c0850137506104c08361010084013795945050505050565b60008183825b6001808210611b1c5750611b32565b8254845260209093019290910190600101611b0d565b50505060208201905092915050565b815160009082906020808601845b83811015611b6b57815185529382019390820190600101611b4f565b5092969550505050505056fea2646970667358221220e62eb8e45a310ac0bcead03ab6f379d890a8fcb18b90bb3b0640be9f24f1d8a264736f6c6343000811003360a06040523480156200001157600080fd5b5060405162002f6e38038062002f6e83398101604081905262000034916200080d565b6001600160a01b038216608052620000556200004f6200017e565b6200019a565b6001600160a01b038316620000995760405162461bcd60e51b8152602060048201526005602482015264465632313160d81b60448201526064015b60405180910390fd5b6001600160a01b038216620000d95760405162461bcd60e51b8152602060048201526005602482015264465632313160d81b604482015260640162000090565b6002620000e787826200099e565b50620000f3836200019a565b620001376001600081905260036020527fa15bc60c955c405d20d9149c709e2460f1c2d9a497496a7f46004d1772c3054c80546001600160a01b0319169091179055565b6200014283620001c4565b6200014f838686620002fd565b80516020820151604083015160608401516200016e84848484620005ed565b5050505050505050505062000ab8565b6000620001956200065460201b620013f51760201c565b905090565b600180546001600160a01b0319169055620001c1816200069b602090811b6200144717901c565b50565b6001600160a01b03811615801590620001e757506001600160a01b038116600114155b8015620001fd57506001600160a01b0381163014155b620002335760405162461bcd60e51b8152602060048201526005602482015264465632303360d81b604482015260640162000090565b6001600160a01b038181166000908152600360205260409020541615620002855760405162461bcd60e51b815260206004820152600560248201526411958c8c0d60da1b604482015260640162000090565b60036020527fa15bc60c955c405d20d9149c709e2460f1c2d9a497496a7f46004d1772c3054c80546001600160a01b038381166000818152604081208054939094166001600160a01b0319938416179093556001835283549091161790915560048054909190620002f69062000a80565b9091555050565b8151600003620003385760405162461bcd60e51b8152602060048201526005602482015264465632303160d81b604482015260640162000090565b8051600003620003735760405162461bcd60e51b8152602060048201526005602482015264465632303160d81b604482015260640162000090565b6001600160a01b0383166000908152600860205260408082208151808301909252805482908290620003a5906200090f565b80601f0160208091040260200160405190810160405280929190818152602001828054620003d3906200090f565b8015620004245780601f10620003f85761010080835404028352916020019162000424565b820191906000526020600020905b8154815290600101906020018083116200040657829003601f168201915b505050505081526020016001820180546200043f906200090f565b80601f01602080910402602001604051908101604052809291908181526020018280546200046d906200090f565b8015620004be5780601f106200049257610100808354040283529160200191620004be565b820191906000526020600020905b815481529060010190602001808311620004a057829003601f168201915b5050509190925250508151519192505015620005055760405162461bcd60e51b8152602060048201526005602482015264465632303960d81b604482015260640162000090565b60208101515115620005425760405162461bcd60e51b8152602060048201526005602482015264465632303960d81b604482015260640162000090565b60408051808201825284815260208082018590526001600160a01b0387166000908152600890915291909120815181906200057e90826200099e565b50602082015160018201906200059590826200099e565b50905050600160096000828254620005ae919062000a9c565b90915550506040516001600160a01b038516907f402d924b9bd03718220c51647be3ad8f7da00914b8aba403753caa37f4944a0290600090a250505050565b600680546040805160808101825287815260208082018881528284018881526060840188815260008781526007909452948320935184559051600184015551600283015591516003909101558254919291620006499062000a80565b909155505050505050565b6080516000906001600160a01b03163314801562000673575060143610155b1562000686575060131936013560601c90565b62000195620006eb60201b620014971760201c565b600080546001600160a01b038381166001600160a01b0319831681178455604051919092169283917f8be0079c531659141344cd1fd0a4f28419497f9722a3daafe3b4186f6b6457e09190a35050565b3390565b634e487b7160e01b600052604160045260246000fd5b604051608081016001600160401b03811182821017156200072a576200072a620006ef565b60405290565b604051601f8201601f191681016001600160401b03811182821017156200075b576200075b620006ef565b604052919050565b600082601f8301126200077557600080fd5b81516001600160401b03811115620007915762000791620006ef565b6020620007a7601f8301601f1916820162000730565b8281528582848701011115620007bc57600080fd5b60005b83811015620007dc578581018301518282018401528201620007bf565b506000928101909101919091529392505050565b80516001600160a01b03811681146200080857600080fd5b919050565b6000806000806000808688036101208112156200082957600080fd5b87516001600160401b03808211156200084157600080fd5b6200084f8b838c0162000763565b985060208a01519150808211156200086657600080fd5b620008748b838c0162000763565b975060408a01519150808211156200088b57600080fd5b506200089a8a828b0162000763565b955050620008ab60608901620007f0565b9350620008bb60808901620007f0565b92506080609f1982011215620008d057600080fd5b50620008db62000705565b60a0880151815260c0880151602082015260e088015160408201526101008801516060820152809150509295509295509295565b600181811c908216806200092457607f821691505b6020821081036200094557634e487b7160e01b600052602260045260246000fd5b50919050565b601f8211156200099957600081815260208120601f850160051c81016020861015620009745750805b601f850160051c820191505b81811015620009955782815560010162000980565b5050505b505050565b81516001600160401b03811115620009ba57620009ba620006ef565b620009d281620009cb84546200090f565b846200094b565b602080601f83116001811462000a0a5760008415620009f15750858301515b600019600386901b1c1916600185901b17855562000995565b600085815260208120601f198616915b8281101562000a3b5788860151825594840194600190910190840162000a1a565b508582101562000a5a5787850151600019600388901b60f8161c191681555b5050505050600190811b01905550565b634e487b7160e01b600052601160045260246000fd5b60006001820162000a955762000a9562000a6a565b5060010190565b8082018082111562000ab25762000ab262000a6a565b92915050565b60805161249362000adb600039600081816101e401526113f901526124936000f3fe608060405234801561001057600080fd5b506004361061014d5760003560e01c8063918b5be1116100c3578063cfd9e0c11161007c578063cfd9e0c114610310578063de72931714610323578063e30c39781461032b578063f2fde38b1461033c578063f4c714b41461034f578063ffad0fc61461037357600080fd5b8063918b5be1146102b257806393ce2036146102c5578063a2425927146102da578063b4d266bc146102e2578063bab50cc9146102f5578063ccdbe6a6146102fd57600080fd5b806366cc227d1161011557806366cc227d146102375780636af8c4e714610249578063715018a61461025c57806379ba509714610264578063876dbec41461026c5780638da5cb5b1461028d57600080fd5b80632df1742a146101525780633bf1bdad146101ac57806353689f33146101c1578063572b6c05146101d45780635eb1cf8f14610224575b600080fd5b610187610160366004611c48565b60076020526000908152604090208054600182015460028301546003909301549192909184565b6040805194855260208501939093529183015260608201526080015b60405180910390f35b6101bf6101ba366004611cbe565b610388565b005b6101bf6101cf366004611d72565b61064e565b6102146101e2366004611dbb565b7f00000000000000000000000000000000000000000000000000000000000000006001600160a01b0390811691161490565b60405190151581526020016101a3565b6101bf610232366004611ddd565b6106b0565b6009545b6040519081526020016101a3565b610214610257366004611dbb565b610973565b6101bf6109ae565b6101bf6109b8565b61027f61027a366004611dbb565b610a54565b6040516101a3929190611ee0565b6000546001600160a01b03165b6040516001600160a01b0390911681526020016101a3565b6101bf6102c0366004611f24565b610b80565b6102cd610c02565b6040516101a39190611fd5565b60045461023b565b6101bf6102f0366004611fe8565b610c90565b61023b610fac565b6101bf61030b366004611dbb565b610fbc565b6101bf61031e36600461201b565b611017565b6101bf6110a9565b6001546001600160a01b031661029a565b6101bf61034a366004611dbb565b6110c9565b61036261035d366004611c48565b61113a565b6040516101a395949392919061209d565b61037b611304565b6040516101a3919061210a565b61039861039361149b565b6114a5565b60008790036103c25760405162461bcd60e51b81526004016103b990612157565b60405180910390fd5b60008590036103e35760405162461bcd60e51b81526004016103b990612157565b6103ec816114e9565b600282600381111561040057610400612087565b0361044357600083900361043e5760405162461bcd60e51b8152602060048201526005602482015264465632313360d81b60448201526064016103b9565b610479565b82156104795760405162461bcd60e51b815260206004820152600560248201526411958c8c4d60da1b60448201526064016103b9565b600061048460055490565b9050610494600580546001019055565b6040518060a001604052808a8a8080601f016020809104026020016040519081016040528093929190818152602001838380828437600092019190915250505090825250604080516020601f8b0181900481028201810190925289815291810191908a908a9081908401838280828437600092019190915250505090825250604080516020601f89018190048102820181019092528781529181019190889088908190840183828082843760009201919091525050509082525060200184600381111561056357610563612087565b815260209081018490526000838152600a909152604090208151819061058990826121ff565b506020820151600182019061059e90826121ff565b50604082015160028201906105b390826121ff565b5060608201518160030160006101000a81548160ff021916908360038111156105de576105de612087565b0217905550608082015181600401559050506105f861149b565b6001600160a01b0316817f7c868b0d1657677f41ebc5d6a76e66b11862720a3800b9b0895b9457c181d8d98b8b8b8b8b8b60405161063b969594939291906122e8565b60405180910390a3505050505050505050565b610656611522565b6106628484848461159b565b6040805185815260208101859052908101839052606081018290527faab31fb710d6d5455bc6c4780d47909b9be91efb723613e2f5dd42ae47dd70699060800160405180910390a150505050565b6106bb61039361149b565b60008790036106dc5760405162461bcd60e51b81526004016103b990612157565b60008590036106fd5760405162461bcd60e51b81526004016103b990612157565b610706816114e9565b600282600381111561071a5761071a612087565b0361075d5760008390036107585760405162461bcd60e51b8152602060048201526005602482015264465632313360d81b60448201526064016103b9565b610793565b82156107935760405162461bcd60e51b815260206004820152600560248201526411958c8c4d60da1b60448201526064016103b9565b60055489106107cc5760405162461bcd60e51b8152602060048201526005602482015264465632303760d81b60448201526064016103b9565b6040518060a0016040528089898080601f016020809104026020016040519081016040528093929190818152602001838380828437600092019190915250505090825250604080516020601f8a0181900481028201810190925288815291810191908990899081908401838280828437600092019190915250505090825250604080516020601f88018190048102820181019092528681529181019190879087908190840183828082843760009201919091525050509082525060200183600381111561089b5761089b612087565b8152602090810183905260008b8152600a90915260409020815181906108c190826121ff565b50602082015160018201906108d690826121ff565b50604082015160028201906108eb90826121ff565b5060608201518160030160006101000a81548160ff0219169083600381111561091657610916612087565b02179055506080820151816004015590505061093061149b565b6001600160a01b0316897f038bf72a38023435f249f01545d426ebccb3348739aab6415949426e9c5b1ca08a8a8a8a8a8a60405161063b969594939291906122e8565b60006001600160a01b0382166001148015906109a857506001600160a01b038281166000908152600360205260409020541615155b92915050565b6109b6611522565b565b60006109c261149b565b9050806001600160a01b03166109e06001546001600160a01b031690565b6001600160a01b031614610a485760405162461bcd60e51b815260206004820152602960248201527f4f776e61626c6532537465703a2063616c6c6572206973206e6f7420746865206044820152683732bb9037bbb732b960b91b60648201526084016103b9565b610a5181611600565b50565b600860205260009081526040902080548190610a6f90612176565b80601f0160208091040260200160405190810160405280929190818152602001828054610a9b90612176565b8015610ae85780601f10610abd57610100808354040283529160200191610ae8565b820191906000526020600020905b815481529060010190602001808311610acb57829003601f168201915b505050505090806001018054610afd90612176565b80601f0160208091040260200160405190810160405280929190818152602001828054610b2990612176565b8015610b765780601f10610b4b57610100808354040283529160200191610b76565b820191906000526020600020905b815481529060010190602001808311610b5957829003601f168201915b5050505050905082565b610b88611522565b8051600003610ba95760405162461bcd60e51b81526004016103b990612157565b6002610bb582826121ff565b50610bbe61149b565b6001600160a01b03167ff7e4f835d77656f8760a2c1a3e841fd8a50759e50c615130349625666a46acd56002604051610bf79190612331565b60405180910390a250565b60028054610c0f90612176565b80601f0160208091040260200160405190810160405280929190818152602001828054610c3b90612176565b8015610c885780601f10610c5d57610100808354040283529160200191610c88565b820191906000526020600020905b815481529060010190602001808311610c6b57829003601f168201915b505050505081565b610c98611522565b6001600454610ca791906123d2565b600003610cde5760405162461bcd60e51b8152602060048201526005602482015264465632303560d81b60448201526064016103b9565b6001600160a01b03811615801590610d0057506001600160a01b038116600114155b8015610d1557506001600160a01b0381163014155b610d495760405162461bcd60e51b8152602060048201526005602482015264465632303360d81b60448201526064016103b9565b6001600160a01b03828116600090815260036020526040902054811690821614610d9d5760405162461bcd60e51b815260206004820152600560248201526411958c8c0d60da1b60448201526064016103b9565b6001600160a01b0381166000908152600860205260408082208151808301909252805482908290610dcd90612176565b80601f0160208091040260200160405190810160405280929190818152602001828054610df990612176565b8015610e465780601f10610e1b57610100808354040283529160200191610e46565b820191906000526020600020905b815481529060010190602001808311610e2957829003601f168201915b50505050508152602001600182018054610e5f90612176565b80601f0160208091040260200160405190810160405280929190818152602001828054610e8b90612176565b8015610ed85780601f10610ead57610100808354040283529160200191610ed8565b820191906000526020600020905b815481529060010190602001808311610ebb57829003601f168201915b505050919092525050506001600160a01b03838116600081815260036020526040808220805489861684529183208054929095166001600160a01b03199283161790945591815282549091169091556004805492935090610f38836123e5565b9091555050805151151580610f5257506000816020015151115b15610f6057610f6082611619565b610f6861149b565b6001600160a01b0316826001600160a01b03167fa3cf1c45ba4d2d0a3d4d7a5fdd2a75b6feec8d0902c676a228fbb2cada34c31860405160405180910390a3505050565b6000610fb760055490565b905090565b610fc4611522565b610fcd81611827565b610fd561149b565b6001600160a01b0316816001600160a01b03167fce61b8b5dd5de3bc40e91f97638290ba020c1f9267272522a018d616f077b16660405160405180910390a350565b61102261039361149b565b600061102c61149b565b90506110a28186868080601f01602080910402602001604051908101604052809392919081815260200183838082843760009201919091525050604080516020601f8a01819004810282018101909252888152925088915087908190840183828082843760009201919091525061195892505050565b5050505050565b6110b461039361149b565b60006110be61149b565b9050610a5181611619565b6110d1611522565b600180546001600160a01b0383166001600160a01b031990911681179091556111026000546001600160a01b031690565b6001600160a01b03167f38d16b8cac22d99fc7c124b9cd0de2d3fa1faef420bfe791d8c362d765e2270060405160405180910390a350565b600a6020526000908152604090208054819061115590612176565b80601f016020809104026020016040519081016040528092919081815260200182805461118190612176565b80156111ce5780601f106111a3576101008083540402835291602001916111ce565b820191906000526020600020905b8154815290600101906020018083116111b157829003601f168201915b5050505050908060010180546111e390612176565b80601f016020809104026020016040519081016040528092919081815260200182805461120f90612176565b801561125c5780601f106112315761010080835404028352916020019161125c565b820191906000526020600020905b81548152906001019060200180831161123f57829003601f168201915b50505050509080600201805461127190612176565b80601f016020809104026020016040519081016040528092919081815260200182805461129d90612176565b80156112ea5780601f106112bf576101008083540402835291602001916112ea565b820191906000526020600020905b8154815290600101906020018083116112cd57829003601f168201915b505050506003830154600490930154919260ff1691905085565b6060600060045467ffffffffffffffff81111561132357611323611f0e565b60405190808252806020026020018201604052801561134c578160200160208202803683370190505b506001600090815260036020527fa15bc60c955c405d20d9149c709e2460f1c2d9a497496a7f46004d1772c3054c54919250906001600160a01b03165b6001600160a01b0381166001146113ed57808383815181106113ad576113ad6123fc565b6001600160a01b039283166020918202929092018101919091529181166000908152600390925260409091205416816113e581612412565b925050611389565b509092915050565b60007f00000000000000000000000000000000000000000000000000000000000000006001600160a01b031633148015611430575060143610155b15611442575060131936013560601c90565b503390565b600080546001600160a01b038381166001600160a01b0319831681178455604051919092169283917f8be0079c531659141344cd1fd0a4f28419497f9722a3daafe3b4186f6b6457e09190a35050565b3390565b6000610fb76113f5565b6114ae81610973565b610a515760405162461bcd60e51b815260206004820152600c60248201526b526f6c65204d697373696e6760a01b60448201526064016103b9565b6006548110610a515760405162461bcd60e51b815260206004820152600560248201526408cac6460760db1b60448201526064016103b9565b61152a61149b565b6001600160a01b03166115456000546001600160a01b031690565b6001600160a01b0316146109b65760405162461bcd60e51b815260206004820181905260248201527f4f776e61626c653a2063616c6c6572206973206e6f7420746865206f776e657260448201526064016103b9565b6006805460408051608081018252878152602080820188815282840188815260608401888152600087815260079094529483209351845590516001840155516002830155915160039091015582549192916115f590612412565b909155505050505050565b600180546001600160a01b0319169055610a5181611447565b6001600160a01b038116600090815260086020526040808220815180830190925280548290829061164990612176565b80601f016020809104026020016040519081016040528092919081815260200182805461167590612176565b80156116c25780601f10611697576101008083540402835291602001916116c2565b820191906000526020600020905b8154815290600101906020018083116116a557829003601f168201915b505050505081526020016001820180546116db90612176565b80601f016020809104026020016040519081016040528092919081815260200182805461170790612176565b80156117545780601f1061172957610100808354040283529160200191611754565b820191906000526020600020905b81548152906001019060200180831161173757829003601f168201915b50505050508152505090506000816000015151116117845760405162461bcd60e51b81526004016103b99061242b565b6000816020015151116117a95760405162461bcd60e51b81526004016103b99061242b565b6001600160a01b0382166000908152600860205260408120906117cc8282611bfa565b6117da600183016000611bfa565b50506009600081546117eb906123e5565b909155506040516001600160a01b038316907fe43263e34fd2c5f045a6bb8f67fc65b9bdfd615beb14b6036a76aedf940e187690600090a25050565b6001600160a01b0381161580159061184957506001600160a01b038116600114155b801561185e57506001600160a01b0381163014155b6118925760405162461bcd60e51b8152602060048201526005602482015264465632303360d81b60448201526064016103b9565b6001600160a01b0381811660009081526003602052604090205416156118e25760405162461bcd60e51b815260206004820152600560248201526411958c8c0d60da1b60448201526064016103b9565b60036020527fa15bc60c955c405d20d9149c709e2460f1c2d9a497496a7f46004d1772c3054c80546001600160a01b038381166000818152604081208054939094166001600160a01b031993841617909355600183528354909116179091556004805490919061195190612412565b9091555050565b81516000036119915760405162461bcd60e51b8152602060048201526005602482015264465632303160d81b60448201526064016103b9565b80516000036119ca5760405162461bcd60e51b8152602060048201526005602482015264465632303160d81b60448201526064016103b9565b6001600160a01b03831660009081526008602052604080822081518083019092528054829082906119fa90612176565b80601f0160208091040260200160405190810160405280929190818152602001828054611a2690612176565b8015611a735780601f10611a4857610100808354040283529160200191611a73565b820191906000526020600020905b815481529060010190602001808311611a5657829003601f168201915b50505050508152602001600182018054611a8c90612176565b80601f0160208091040260200160405190810160405280929190818152602001828054611ab890612176565b8015611b055780601f10611ada57610100808354040283529160200191611b05565b820191906000526020600020905b815481529060010190602001808311611ae857829003601f168201915b5050509190925250508151519192505015611b325760405162461bcd60e51b81526004016103b99061242b565b60208101515115611b555760405162461bcd60e51b81526004016103b99061242b565b60408051808201825284815260208082018590526001600160a01b038716600090815260089091529190912081518190611b8f90826121ff565b5060208201516001820190611ba490826121ff565b50905050600160096000828254611bbb919061244a565b90915550506040516001600160a01b038516907f402d924b9bd03718220c51647be3ad8f7da00914b8aba403753caa37f4944a0290600090a250505050565b508054611c0690612176565b6000825580601f10611c16575050565b601f016020900490600052602060002090810190610a5191905b80821115611c445760008155600101611c30565b5090565b600060208284031215611c5a57600080fd5b5035919050565b60008083601f840112611c7357600080fd5b50813567ffffffffffffffff811115611c8b57600080fd5b602083019150836020828501011115611ca357600080fd5b9250929050565b803560048110611cb957600080fd5b919050565b60008060008060008060008060a0898b031215611cda57600080fd5b883567ffffffffffffffff80821115611cf257600080fd5b611cfe8c838d01611c61565b909a50985060208b0135915080821115611d1757600080fd5b611d238c838d01611c61565b909850965060408b0135915080821115611d3c57600080fd5b50611d498b828c01611c61565b9095509350611d5c905060608a01611caa565b9150608089013590509295985092959890939650565b60008060008060808587031215611d8857600080fd5b5050823594602084013594506040840135936060013592509050565b80356001600160a01b0381168114611cb957600080fd5b600060208284031215611dcd57600080fd5b611dd682611da4565b9392505050565b600080600080600080600080600060c08a8c031215611dfb57600080fd5b8935985060208a013567ffffffffffffffff80821115611e1a57600080fd5b611e268d838e01611c61565b909a50985060408c0135915080821115611e3f57600080fd5b611e4b8d838e01611c61565b909850965060608c0135915080821115611e6457600080fd5b50611e718c828d01611c61565b9095509350611e84905060808b01611caa565b915060a08a013590509295985092959850929598565b6000815180845260005b81811015611ec057602081850181015186830182015201611ea4565b506000602082860101526020601f19601f83011685010191505092915050565b604081526000611ef36040830185611e9a565b8281036020840152611f058185611e9a565b95945050505050565b634e487b7160e01b600052604160045260246000fd5b600060208284031215611f3657600080fd5b813567ffffffffffffffff80821115611f4e57600080fd5b818401915084601f830112611f6257600080fd5b813581811115611f7457611f74611f0e565b604051601f8201601f19908116603f01168101908382118183101715611f9c57611f9c611f0e565b81604052828152876020848701011115611fb557600080fd5b826020860160208301376000928101602001929092525095945050505050565b602081526000611dd66020830184611e9a565b60008060408385031215611ffb57600080fd5b61200483611da4565b915061201260208401611da4565b90509250929050565b6000806000806040858703121561203157600080fd5b843567ffffffffffffffff8082111561204957600080fd5b61205588838901611c61565b9096509450602087013591508082111561206e57600080fd5b5061207b87828801611c61565b95989497509550505050565b634e487b7160e01b600052602160045260246000fd5b60a0815260006120b060a0830188611e9a565b82810360208401526120c28188611e9a565b905082810360408401526120d68187611e9a565b915050600484106120f757634e487b7160e01b600052602160045260246000fd5b6060820193909352608001529392505050565b6020808252825182820181905260009190848201906040850190845b8181101561214b5783516001600160a01b031683529284019291840191600101612126565b50909695505050505050565b602080825260059082015264232b19181b60d91b604082015260600190565b600181811c9082168061218a57607f821691505b6020821081036121aa57634e487b7160e01b600052602260045260246000fd5b50919050565b601f8211156121fa57600081815260208120601f850160051c810160208610156121d75750805b601f850160051c820191505b818110156121f6578281556001016121e3565b5050505b505050565b815167ffffffffffffffff81111561221957612219611f0e565b61222d816122278454612176565b846121b0565b602080601f831160018114612262576000841561224a5750858301515b600019600386901b1c1916600185901b1785556121f6565b600085815260208120601f198616915b8281101561229157888601518255948401946001909101908401612272565b50858210156122af5787850151600019600388901b60f8161c191681555b5050505050600190811b01905550565b81835281816020850137506000828201602090810191909152601f909101601f19169091010190565b6060815260006122fc60608301888a6122bf565b828103602084015261230f8187896122bf565b905082810360408401526123248185876122bf565b9998505050505050505050565b600060208083526000845461234581612176565b808487015260406001808416600081146123665760018114612380576123ae565b60ff1985168984015283151560051b8901830195506123ae565b896000528660002060005b858110156123a65781548b820186015290830190880161238b565b8a0184019650505b509398975050505050505050565b634e487b7160e01b600052601160045260246000fd5b818103818111156109a8576109a86123bc565b6000816123f4576123f46123bc565b506000190190565b634e487b7160e01b600052603260045260246000fd5b600060018201612424576124246123bc565b5060010190565b602080825260059082015264465632303960d81b604082015260600190565b808201808211156109a8576109a86123bc56fea2646970667358221220d0befa6f7338d8af009a1ce56483b5163f7c83e4bceea4ae85c25c7aa1cc776264736f6c63430008110033516d4e534d335254726868744b38554a4553544a594245577967554856324450656478444a664869567068565642",
  "devdoc": {
    "kind": "dev",
    "methods": {},
    "version": 1
  },
  "userdoc": {
    "kind": "user",
    "methods": {},
    "version": 1
  },
  "storageLayout": {
    "storage": [
      {
        "astId": 397,
        "contract": "contracts/CommunityPortal.sol:CommunityPortal",
        "label": "owner",
        "offset": 0,
        "slot": "0",
        "type": "t_address"
      },
      {
        "astId": 400,
        "contract": "contracts/CommunityPortal.sol:CommunityPortal",
        "label": "trustedForwarder",
        "offset": 0,
        "slot": "1",
        "type": "t_address"
      },
      {
        "astId": 406,
        "contract": "contracts/CommunityPortal.sol:CommunityPortal",
        "label": "VALID_EVENT_IDS",
        "offset": 0,
        "slot": "2",
        "type": "t_array(t_uint256)1_storage"
      },
      {
        "astId": 413,
        "contract": "contracts/CommunityPortal.sol:CommunityPortal",
        "label": "ETHBERLIN_SIGNER",
        "offset": 0,
        "slot": "3",
        "type": "t_array(t_uint256)2_storage"
      }
    ],
    "types": {
      "t_address": {
        "encoding": "inplace",
        "label": "address",
        "numberOfBytes": "20"
      },
      "t_array(t_uint256)1_storage": {
        "base": "t_uint256",
        "encoding": "inplace",
        "label": "uint256[1]",
        "numberOfBytes": "32"
      },
      "t_array(t_uint256)2_storage": {
        "base": "t_uint256",
        "encoding": "inplace",
        "label": "uint256[2]",
        "numberOfBytes": "64"
      },
      "t_uint256": {
        "encoding": "inplace",
        "label": "uint256",
        "numberOfBytes": "32"
      }
    }
  }
}